:1000000028C1000057C1000055C1000053C10000C5
:1000100051C100004FC100004DC100004BC10000A4
:1000200049C1000047C1000045C1000043C10000B4
:1000300041C100003FC100003DC100003BC10000C4
:1000400039C1000037C1000035C1000033C10000D4
:1000500031C100002FC100002DC100000C94460DDD
:1000600029C100000C94390C0C94100C23C1000021
:1000700021C100001FC100001DC100001BC1000004
:1000800019C1000017C1000015C1000013C1000014
:1000900011C100000FC100000DC100000BC1000024
:1000A00009C1000007C1000005C1000003C1000034
:1000B00001C10000FFC00000FDC00000FBC0000047
:1000C000F9C00000F7C00000F5C00000F3C0000058
:1000D000F1C00000EFC00000EDC00000EBC0000068
:1000E000E9C00000360A390A280A2C0A320A700AC6
:1000F0003D0A410A470A4B0A4F0A550A590A5D0A46
:10010000700A630A670A6B0A0000210024002700B6
:100110002A002D0030003300010100000401070116
:100120000A01010210202008081020401020408001
:1001300002010201080402010102040810204080AB
:100140008040201008040201800402018040201039
:100150000804020108040201010204081020408082
:100160000102040810204080050505050705080860
:100170000808020202020A0A080804040404010131
:100180000101010101010303030303030303040746
:1001900007070C0C0C0C0C0C0C0C020202020606DD
:1001A0000606060606060B0B0B0B0B0B0B0B0000D3
:1001B0002200250028002B002E003100340002010F
:1001C0000000050108010B010000200023002600AB
:1001D00029002C002F00320000010000030106015D
:1001E000090100000A0B02090C0D0E0807030401A7
:1001F00000000000000000000000000000000000FF
:1002000000000000000000000000000000001211CB
:1002100010000000000000000000000000000000CE
:10022000000000000000000021402324255E262A53
:1002300028295F2B7B7D7C7E3A227E3C3E3F2D3DF4
:100240005B5D5C203B27602C2E2F2F2A2D2B13006B
:100250001E2011241FBECFEFD1E2DEBFCDBF00E0D4
:100260000CBF12E0A0E0B2E0E6E5F2E400E00BBF74
:1002700002C007900D92A238B107D9F723E0A2E897
:10028000B2E001C01D92A33FB207E1F711E0C9E25D
:10029000D1E000E006C021970109802FFE010E94F5
:1002A0001621C832D10780E00807A9F70E94A114DF
:1002B0000C942921A5CE0895EF92FF92CF93DF935E
:1002C000DC01E70152968C915297823049F11F96DA
:1002D0006C931F9750964C9350979B8193709330DB
:1002E000F9F49A8197FF1CC09E8158962C915897DB
:1002F000291718F458969C935897E82FF0E09F011F
:10030000220F331FE20FF31FEA0FFB1F9A819F702A
:1003100097839C81908794E091878F5F52968C930E
:10032000DF91CF91FF90EF900895EF92FF920F939E
:100330000297C2DF0F91FF90EF900895FC0187892B
:100340000895860F911D860F911DFC018585968568
:10035000089581E0613009F080E0089581E0633024
:1003600009F080E00895FC0186810895CF93DF9322
:10037000EC018C819D81DC01ED91FC910480F58183
:10038000E02D6E8119951F86188A81E08A8B1E8266
:100390001B8A1C8A1D8A1E8A1F8A80E0DF91CF91EA
:1003A00008953F924F925F926F927F928F929F92A9
:1003B000AF92BF92CF92DF92EF92FF920F931F9373
:1003C000CF93DF9300D01F92CDB7DEB76C017C8353
:1003D0006B835A8349834C0180E1880E911C56013E
:1003E000A7E0AA0EB11C11E084E0482E3601B2E16C
:1003F0006B0E711C93E0392E22E0522E8B819C8172
:10040000892B09F4FEC0F60190A1923059F128F42D
:10041000992341F0913071F0F1CF933039F194305C
:10042000C1F1ECCF54828581968190878783528673
:10043000518610A3AE014D5F5F4FBE016F5F7F4FCE
:10044000C5010E94900D882309F4DBC0D6011596E2
:10045000ED91FC911697808191968C939197818173
:1004600092968C93F6017682658230A2D60192969E
:100470008C919297843011F493961C92F60181A18D
:1004800082508483258136813087278382878187C4
:1004900040A2D60192968C918430B1F0853009F457
:1004A00042C0823009F06EC0AE014D5F5F4FBE01A9
:1004B0006F5F7F4FC5010E94900D882309F4A1C092
:1004C000F601858984A395C0AE014D5F5F4FBE01E3
:1004D0006F5F7F4FC5010E94900D882309F491C082
:1004E000D60155968C915597833009F082C0569667
:1004F0008C915697813009F07CC098969C91989782
:1005000057968C91992321F0882309F472C003C077
:10051000813009F06EC0F60113A3928996A39389E6
:1005200097A385A366C0AE014D5F5F4FBE016F5FAD
:100530007F4FC5010E94900D882309F462C0D60147
:1005400093968C919397882309F453C012968D91BA
:100550009C911397009709F44CC0DC01ED91FC913C
:100560000190F081E02D7401D60195960C9195973C
:1005700097962C91979796964C91969794966C9106
:10058000199537C0F60181A19585992319F091300D
:1005900031F02AC090E002979787868715872B81D4
:1005A0003C8189819A81782F692FD6011E964D91C1
:1005B0005C911F974115510539F43C832B839A8335
:1005C00089831D961C9210C001962115310541F0BA
:1005D00041505109F6015787468721503109E3CF31
:1005E0001C821B8279836A83F60186859785892B15
:1005F00041F4D60116969C928E92159790961C9275
:10060000FDCE0F900F900F900F90DF91CF911F9123
:100610000F91FF90EF90DF90CF90BF90AF909F90A1
:100620008F907F906F905F904F903F9008951F93B1
:10063000CF93DF931F92CDB7DEB7182F80E591E0FF
:100640000E9416130E943410812F0E940F1380E025
:100650000E940F1389830E9436100E940E13898115
:100660000F90DF91CF911F910895FC0120812EBD45
:10067000DC0131969C01260F371FE217F30741F08A
:1006800051910DB407FEFDCF4EB55EBD4D93F5CF34
:1006900061507109FC01E60FF71F0DB407FEFDCF95
:1006A0008EB5808308952F923F924F925F926F9202
:1006B0007F928F929F92AF92BF92CF92DF92EF92F2
:1006C000FF920F931F93CF93DF93CDB7DEB7299798
:1006D0000FB6F894DEBF0FBECDBF1C0179876887C7
:1006E0005B834A836901D9018D909C901197FB012E
:1006F000F181F9831D921C92DB0112968C9181FD90
:1007000002C060E101C060E288EE0E94E40D8E2D1F
:1007100090E0A0E0B0E08C839D83AE83BF83482C43
:100720002A813B81A885B9854C9160E0C1010E9476
:10073000B20EF82EB6E08B1316C088EF0E94030E9F
:100740008295817091E08927E885F985928180FB07
:1007500091F9928391FD02C060E101C060E288EEF0
:100760000E94E40DDDCF811165C088EC0E94030E6C
:1007700082FF5EC080E30E94030E582E90E0881630
:10078000990608F4542CD6018D919C91652C712CFE
:10079000F401E81BF90BCF01F7FF02C080E090E005
:1007A0005301861597050CF45C0180E591E00E94E9
:1007B00016130E94341088E00E940F13A50160E018
:1007C00070E0C8010E942221A114B10419F0B50102
:1007D000C8014BDF0A0D1B1D0E9436100E940E132C
:1007E00064E088EC0E94E40DD6018D919C911197F4
:1007F000680E791E6D927C92B9815B1618F06814B0
:10080000790460F088EF0E94030E82958170E8857C
:10081000F985928180FB91F992830CC0EE2009F456
:100820007FCF6C817D818E819F810E94020D78CF68
:1008300080EFF82E8F2D29960FB6F894DEBF0FBEED
:10084000CDBFDF91CF911F910F91FF90EF90DF907F
:10085000CF90BF90AF909F908F907F906F905F9060
:100860004F903F902F9008952F923F924F925F921A
:100870006F927F928F929F92AF92BF92CF92DF92B0
:10088000EF92FF920F931F93CF93DF93CDB7DEB715
:1008900068970FB6F894DEBF0FBECDBF2C014B8B0F
:1008A000322E202EFC2CCEA4DFA468A879A81E86A8
:1008B0001D861C861B868E01055F1F4F9E01235FD0
:1008C0003F4F0E941913811158C139822A82EB824D
:1008D000FC82BE82AD8298868F82AE014F5F5F4FF1
:1008E00068E080E20E94C40D2B853C854B8960E165
:1008F000C2010E94B20E182F8111FBC0232C221CB2
:100900002224221C6114710409F4E4C0AD84BE8465
:10091000222009F455C0D50112968C91129782605D
:1009200012968C93540133243394A114B10409F426
:1009300043C0DA86C9864B855C856D857E85E12C52
:1009400083019E01275F3F4FC201ADDE182F863025
:1009500079F4ED84FE8488EF0E94030E85FB8827DE
:1009600080F98325F701928180FB91F99283DDCF95
:100970008111BFC02AA93BA921153105A1F0D901D8
:10098000ED91FC9111970190F081E02DC4018A193D
:100990009B09988B8F8769857A859E01215F3F4FE0
:1009A000A301CD01199589859A85A81AB90A8C15D4
:1009B0009D0508F0BACF8EC0112309F490C099C0EC
:1009C000F501828181608283EB84FC8401818FEF59
:1009D000800F803408F08BC00E943A0D9B01AC015F
:1009E00028573C4E4F4F5F4F2C8B3D8B4E8B5F8B70
:1009F000D50112968C9180FD02C060E401C060E8D0
:100A000088EE0E94E40D202F30E03A8B298BC11430
:100A1000D10409F44DC0460129893A892C153D05B8
:100A200008F44901888EA301682D80E10E94C40D5D
:100A3000682D88E30E94E40DD5016C91606280EF1F
:100A40000E94E40D88EC0E94030E87FFFBCF60E854
:100A500088EC0E94E40D88EF0E94030E182F1F708F
:100A6000212C312C00E0112371F00E943A0DDC01A1
:100A7000CB012C893D894E895F89821B930BA40B86
:100A8000B50BB7FD05C0C818D908680C791CBFCFD5
:100A9000163089F11E3009F468C0143049F4BFEFF4
:100AA0002B1A3B0AE114F104F1F12E143F04D9F59D
:100AB00088EF0E94030E85FB882780F9D5011296E6
:100AC0009C91129780FB90F912969C93112309F444
:100AD00050C00FC02B853C85211003C04CC02B8516
:100AE0003C8560EA4B89C2010E94B20E46C08AED85
:100AF00044C0812F42C088EF0E94030E85FB8827E7
:100B000080F9E1E08E27D50112969C91129780FB27
:100B100090F912969C9390FD02C060E401C060E8D9
:100B200088EE0E94E40D60E088E30E94E40DF3018A
:100B3000608180E10E94E40D688D88E30E94E40DED
:100B4000D5016C91606280EF0E94E40D88EC0E94F8
:100B5000030E87FFFBCF60E888EC0E94E40D88EF6E
:100B60000E94030E182F1F707ECF0F5F0330D9F63F
:100B70009FCF2B853C8560E8B5CF68960FB6F8947B
:100B8000DEBF0FBECDBFDF91CF911F910F91FF90C0
:100B9000EF90DF90CF90BF90AF909F908F907F901D
:100BA0006F905F904F903F902F9008952F923F92BB
:100BB0004F925F926F927F928F929F92AF92BF926D
:100BC000CF92DF92EF92FF920F931F93CF93DF9319
:100BD000CDB7DEB7C558D1090FB6F894DEBF0FBE4A
:100BE000CDBFDC011496ED90FC90159716963C91C4
:100BF000311138C2022FA42EB62E3C01FC01108EFA
:100C0000D701ED91FC910190F081E02D60E0C701EA
:100C100019952C01009711F486ED29C2FC01C080C2
:100C2000D180C114D10409F41FC29301295F3F4F41
:100C3000EF963FAF2EAFEF973183208304839E0161
:100C400026593F4F48E050E060E0D30114968D9163
:100C50009C9115970E94BA131E01BCE72B0E311C04
:100C6000F10180838111F0C1AB961FADAB97D2012A
:100C7000CD92DC92D701ED91FC910280F381E02DC1
:100C80002A2D40E06B2DC7011995F3018683882337
:100C900009F4ECC1E2969FADE2979087482F60E09F
:100CA000848195810E948B13D1018C93D701ED91A2
:100CB000FC91D20114961C92882369F00480F5817E
:100CC000E02DD30116966C91C7011995F301168298
:100CD000D1018C91CCC10190F081E02DD301169609
:100CE0006C91C7011995009709F496CF133108F05C
:100CF00012E1FC010483112389F0412F50E09E0191
:100D000026593F4FD30116966C91169714968D91E4
:100D10009C9115970E94BA13F1018083D1011C9117
:100D2000111195C1EC963FADEC97CD57DF4F38834D
:100D3000C358D040F12C2E0181E4480E511CD30140
:100D40001296CC57DF4FB983A883C458D040F20124
:100D50007096C158DF4FF983E883CF57D040CD5705
:100D6000DF4F3881C358D040F31609F49CC0EAE045
:100D7000F2E0D2011196FC93EE93CC57DF4F28811D
:100D80003981C458D04013963C932E9312971D96E8
:100D90001C921D971F961C921E921E9790961C9255
:100DA000909791961C92919792961C9292979896F2
:100DB0001C929897C158DF4F88819981CF57D040B6
:100DC00016969C938E93159718969C938E931797CF
:100DD00014968C9114971A968C931A9719968C9353
:100DE0001997C158DF4FE881F981CF57D0401C9641
:100DF000FC93EE931B97D3011696DC9016971496EE
:100E0000ED91FC911597CF57DF4FF983E883C158D7
:100E1000D0401F921F9221E030E02C0F3D1F3F93E6
:100E20002F931F9239E03F9379E0872E912CA12CCC
:100E3000B12CE2E0CE2EEF2C06E020E840E06D2D54
:100E4000CF57DF4F88819981C158D0400DDD0F9079
:100E50000F900F900F900F900F9081111DC08B80FD
:100E60009C805F924F9281E090E08C0F9D1F9F933A
:100E70008F931F9290E49F9320E840E06D2DCF5711
:100E8000DF4F88819981C158D040EEDC0F900F90E0
:100E90000F900F900F900F90D30152968C9182304B
:100EA00011F0F3945CCFD30152960C91023021F0F3
:100EB00081EDF1018083CBC0D3011696FC9016978B
:100EC00014968D919C911597EF96EEADFFADEF972F
:100ED000EF2B71F06F2D8AD4FC01892B59F0F2822F
:100EE000EF962EAD3FADEF9731832083038303C090
:100EF00018ED01C016EDD1011C9368EE73E080E09F
:100F000090E080D51F921F921F921F921F921F92F6
:100F1000812C912CA12CB12CC12CF301E78409E088
:100F200020E040E06681848195819EDCD1018C9334
:100F30000F900F900F900F900F900F90811187C01E
:100F400068EE73E080E090E05DD51F921F921F92E3
:100F50001F921F921F92F301E18C0BE021E240E00F
:100F600066818481958180DCD1018C930F900F90F4
:100F70000F900F900F900F90811169C01F921F92D8
:100F80001F921F921F921F92E12C0AE021E240E083
:100F9000F30166818481958167DCD1018C93FE0128
:100FA000EF5BFF4F80E192E091838083FF93EF93AB
:100FB000CE0101969F938F931F9280E48F9350E808
:100FC000852E912C62E2C62E06E021E840E0F30176
:100FD00066818481958148DC80E2D1018C930FB6D3
:100FE000F894DEBF0FBECDBF11E0D1018C918823F4
:100FF00039F190E095958795D1018C931F921F92BE
:101000003F922F921F921F9388248394912CA12C9E
:10101000B12C42E0C42EE12C09E021E240E0F301D2
:1010200066818481958120DC0F900F900F900F9046
:101030000F900F9069E170E080E090E0E3D4D5CFAD
:1010400091E0F301978B13C0D201CD92DC92D301D2
:10105000ED91FC910480F581E02DC3011995F1011A
:10106000808105C089ED03C087ED01C084EDCB57B9
:10107000DF4F0FB6F894DEBF0FBECDBFDF91CF912B
:101080001F910F91FF90EF90DF90CF90BF90AF90A6
:101090009F908F907F906F905F904F903F902F9098
:1010A0000895AF92BF92CF92DF92EF92FF920F938B
:1010B0001F93CF93DF93CDB7DEB766970FB6F89443
:1010C000DEBF0FBECDBFDC0157962C91222309F461
:1010D0005DC06C01CFD4F601038914892589368956
:1010E000DC01CB01801B910BA20BB30BB7FD4EC0F3
:1010F000838590E09E8B8D8B42856681A480B58030
:101100001C8A1B8A1A8A198A8E010F5E1F4F9E0144
:101110002D5E3F4FC5010E941913F82E81110EC09C
:1011200049895A896B897C89E12C8E010F5F1F4F99
:101130009E012B5E3F4FC501B6DAF82EF11018C0A4
:101140002D893E892330310598F0D6011D968D9169
:101150009C911E97009761F0DC01ED91FC9101904C
:10116000F081E02D8E010F5F1F4F40E0B601199511
:1011700081D4F601208DDC01CB01820F911DA11DD0
:10118000B11D838B948BA58BB68B01C0F12C8F2D59
:1011900066960FB6F894DEBF0FBECDBFDF91CF913C
:1011A0001F910F91FF90EF90DF90CF90BF90AF9085
:1011B00008951F93CF93DF9300D0CDB7DEB7182FDC
:1011C00080E591E06B830E9416134ED7126019835D
:1011D0006B816A8362E070E0CE01019646DA46D701
:1011E0000E940E130F900F900F90DF91CF911F91DF
:1011F0000895CF92DF92EF92FF920F931F93CF93B8
:10120000DF936C017A018B01C0E0D0E0CE15DF05E1
:1012100089F0D8016D918D01D601ED91FC9101907D
:10122000F081E02DC6011995892B11F47E0102C0D1
:101230002196ECCFC701DF91CF911F910F91FF90C5
:10124000EF90DF90CF900895FC01918D828D9817DB
:1012500061F0828DDF01A80FB11D5D968C91928D9A
:101260009F5F9F73928F90E008958FEF9FEF089597
:10127000FC01918D828D981731F0828DE80FF11D60
:10128000858D90E008958FEF9FEF0895FC01918D7B
:10129000228D892F90E0805C9F4F821B91098F7374
:1012A0009927089589EB92E0F1DF21E0892B09F479
:1012B00020E0822F0895FC01848DDF01A80FB11D6D
:1012C000A35ABF4F2C91848D90E001968F7399277C
:1012D000848FA689B7892C93A089B1898C91806469
:1012E0008C93938D848D981306C00288F389E02D2A
:1012F00080818F7D80830895EF92FF920F931F93DB
:10130000CF93DF93EC0181E0888F9B8D8C8D9813B8
:1013100005C0E889F989808185FD23C0F62E0B8DF3
:1013200010E00F5F1F4F0F731127E02E8C8DE81216
:101330000BC00FB607FCFACFE889F989808185FFD9
:10134000F5CFCE01B8DFF2CF8B8DFE01E80FF11D96
:10135000E35AFF4FF0820B8FEA89FB89808180621C
:1013600007C0EE89FF896083E889F98980818064FC
:10137000808381E090E0DF91CF911F910F91FF90EA
:10138000EF900895CF93DF93EC01888D8823C1F00F
:10139000EA89FB89808185FD05C0A889B9898C917E
:1013A00086FD0EC00FB607FCF5CF808185FFF2CF1A
:1013B000A889B9898C9185FFEDCFCE017CDFE8CF7C
:1013C000DF91CF91089580E090E0892B19F06ADFDA
:1013D000811125C080E090E0892B41F080E090E011
:1013E000892B21F00E94000081111CC080E090E058
:1013F000892B41F080E090E0892B21F00E940000D1
:10140000811113C080E090E0892BA1F080E090E092
:10141000892B81F00E94000081110AC008950E946A
:101420000000D8CF0E940000E1CF0E940000EACF68
:101430000C940000089590E0FC013197E231F10531
:1014400008F04EC08827EE58FF4F8F4F0C9416219E
:10145000809180008F7703C0809180008F7D809382
:101460008000089580918000877FF9CF84B58F77C1
:1014700002C084B58F7D84BD08958091B0008F77C0
:1014800003C08091B0008F7D8093B000089580915B
:1014900090008F7707C0809190008F7D03C080916E
:1014A0009000877F8093900008958091A0008F77AF
:1014B00007C08091A0008F7D03C08091A000877F2E
:1014C0008093A0000895809120018F7707C08091BC
:1014D00020018F7D03C080912001877F80932001B0
:1014E00008953FB7F8948091B4029091B502A0910D
:1014F000B602B091B70226B5A89B05C02F3F19F0E0
:101500000196A11DB11D3FBFBA2FA92F982F882783
:10151000820F911DA11DB11DBC01CD0142E0660FDE
:10152000771F881F991F4A95D1F708953F924F92D0
:101530005F926F927F928F929F92AF92BF92CF9263
:10154000DF92EF92FF920F931F93CF93DF93D80117
:1015500012962C91213009F465C02B01EC016A81AF
:10156000F8014081641731F0E881F9810480F58148
:10157000E02D19954801F2E08F0E911C5E0184E088
:10158000A80EB11C3E01AAE06A0E711C750164012F
:10159000D6014C91F7019081D401F501312C80E006
:1015A0002191421303C0413009F081E02D912913AC
:1015B00004C0913011F033243394E615F70581F718
:1015C000811113C0E881F9810280F381E02DB2011D
:1015D000CE011995E881F9810680F781E02DD601C9
:1015E0004C91D8016C91CE01199531100AC0E88157
:1015F000F9810084F185E02DD7014C916A81CE01FB
:101600001995BFEFCB1ADB0AEFEFEE1AFE0AE614CC
:10161000F70409F0BDCFF801229681918993C61590
:10162000D705D9F7DF91CF911F910F91FF90EF90E0
:10163000DF90CF90BF90AF909F908F907F906F90F2
:101640005F904F903F90089508950895DF92EF9234
:10165000FF920F931F93CF93DF93EC01E62EF12CB3
:1016600085E0689FB0011124FE01E60FF71F808519
:10167000182F177086FF20C001E085E0D82E8FEF6D
:10168000800F8F3008F001E0FE01D09EE00DF11DCB
:10169000112480858695869586958770811304C070
:1016A000602FCE01D3DFEBCF0F5F003169F78D8163
:1016B000811302C011501D8385E08E9DF0018F9D26
:1016C000F00D1124EC0FFD1F108681E0818712863A
:1016D0002296D783C683DF91CF911F910F91FF9000
:1016E000EF90DF900895FC016134C1F43F969C01B6
:1016F000265A3F4F61E0AC014E5F5F4FDF0112970A
:101700001C9211966C93108213974D935C933596AF
:10171000E217F30799F7FC01158208953D9621E041
:101720003081361302C0622F91CF2F5F3596203162
:10173000B9F70895CF93DF93FC01862F807809F0E5
:1017400051C0283008F04FC0442321F095819730D4
:1017500009F449C0EF012D96A0E0B0E01196988100
:10176000911103C0662331F021C02596AF30B10539
:10177000A9F739C085E08A9FE0018B9FD00D112425
:10178000CE0FDF1F442331F081E4888785818F5F8E
:10179000858302C081E0888725E02A9FC0012B9FB6
:1017A000900D1124E80FF91F80851DC06770660F2A
:1017B000660F660F442341F0606485818F5F8583E7
:1017C0008770687F682B03C02770687B622B25E0D9
:1017D0002A9FC0012B9F900D1124E80FF91F6087ED
:1017E000862F01C080E0DF91CF910895611102C082
:1017F00006960895FC013D9621E03081361307C01E
:1018000035E0239F800D911D1124069608952F5FCA
:101810003596203191F780E090E008950E941E21D6
:101820001F920F920FB60F9211240BB60F922F93A7
:101830003F934F935F936F937F938F939F93AF9358
:10184000BF93EF93FF9389EB92E035DDFF91EF912A
:10185000BF91AF919F918F917F916F915F914F91C8
:101860003F912F910F900BBE0F900FBE0F901F90C6
:1018700018951F920F920FB60F9211240BB60F926C
:101880002F938F939F93EF93FF93E091C902F09171
:10189000CA028081E091CF02F091D00282FD12C095
:1018A00090818091D2028F5F8F732091D302821733
:1018B00051F0E091D202F0E0E754FD4F958F809314
:1018C000D20201C08081FF91EF919F918F912F9162
:1018D0000F900BBE0F900FBE0F901F901895CF93D7
:1018E000DF93282F30E0F901EE51FE4F8491F9018A
:1018F000EE5DFE4FD491F901E859FE4FC491CC231F
:1019000089F0811198DDEC2FF0E0EE0FFF1FE85316
:10191000FE4FA591B491EC91ED2381E090E021F48C
:1019200080E002C080E090E0DF91CF9108951F93A6
:10193000CF93DF93282F30E0F901EE51FE4F8491D1
:10194000F901EE5DFE4FD491F901E859FE4FC491C3
:10195000CC23C1F0162F81116EDDEC2FF0E0EE0FDD
:10196000FF1FE255FE4FA591B4918FB7F894111166
:1019700005C09C91ED2FE095E92302C0EC91ED2B81
:10198000EC938FBFDF91CF911F910895CF93DF9399
:1019900090E0FC01EE5DFE4F2491FC01E859FE4F02
:1019A0008491882361F190E0880F991FFC01E85F22
:1019B000FE4FC591D491FC01E255FE4FA591B49123
:1019C000611109C09FB7F89488812095822388838C
:1019D000EC912E230BC0623061F49FB7F8943881EC
:1019E000822F809583238883EC912E2B2C939FBF8D
:1019F00006C08FB7F894E8812E2B28838FBFDF9124
:101A0000CF9108958F929F92AF92BF92CF92DF9223
:101A1000EF92FF926B017C0164DD4B015C01C1140C
:101A2000D104E104F104E9F05CDDDC01CB018819AB
:101A30009909AA09BB09883E9340A105B10578F32D
:101A400021E0C21AD108E108F10888EE880E83E08F
:101A5000981EA11CB11CC114D104E104F10421F7AA
:101A6000DECFFF90EF90DF90CF90BF90AF909F9030
:101A70008F9008952FB7F8946091B0027091B102E1
:101A80008091B2029091B3022FBF08951F920F92DE
:101A90000FB60F9211242F933F938F939F93AF9381
:101AA000BF938091B0029091B102A091B202B09127
:101AB000B3023091AF0223E0230F2D3720F40196BB
:101AC000A11DB11D05C026E8230F0296A11DB11D61
:101AD0002093AF028093B0029093B102A093B20220
:101AE000B093B3028091B4029091B502A091B60276
:101AF000B091B7020196A11DB11D8093B4029093DD
:101B0000B502A093B602B093B702BF91AF919F9177
:101B10008F913F912F910F900FBE0F901F901895AE
:101B2000CF93DF93FC01EA0180819181892B19F524
:101B300080E027C028813981232BD1F3DB012D914F
:101B40003C91D9019C91A381B0E0A81BB1092081EF
:101B50003181A20FB31F9C9382818150828388813F
:101B60009981019799838883DB018D919C911197CD
:101B700001968D939C9382818111DCCF8381828336
:101B800081E0DF91CF9108950F931F93CF93DF935F
:101B9000C82FD62F8A0180E591E048D565D28C2FD9
:101BA00082603DD5CD2FD0E0209721F0BE01C80145
:101BB0000E943503C00FD11F59D230D5CE01DF911D
:101BC000CF911F910F9108951F93CF93DF9300D072
:101BD000CDB7DEB7182F80E591E06B8327D544D2CF
:101BE000126019836B816A8362E070E0CE01019616
:101BF0000E9435033BD212D50F900F900F90DF91CA
:101C0000CF911F9108951F93CF93DF931F92CDB76C
:101C1000DEB7182F80E591E009D526D2812FFFD4B9
:101C200080E0FDD4898322D2F9D489810F90DF919D
:101C3000CF911F9108959F92AF92BF92CF92DF9262
:101C4000EF92FF920F931F93CF93DF937C01C42FEA
:101C5000122F992493946C01C60ED11CC60ED11C70
:101C600086E5C80ED11CA42EB12CABE2AA0EB11C85
:101C7000AA0CBB1CAE0CBF1CF60180819181DC015B
:101C8000ED91FC910280F381E02D202F412F6C2FEC
:101C90001995803EB9F4C11109C061E088EE94DF66
:101CA00066E670E080E090E0ADDE16C0F501808170
:101CB0009181DC01ED91FC910284F385E02D612F8F
:101CC00019950AC08D3031F49FEF990D933008F0CB
:101CD0003DC016C081113AC0F60180819181DC01BE
:101CE000ED91FC910190F081E02D202F412F6C2F80
:101CF0001995D82F8D3059F48FEF890D833048F422
:101D000064E670E080E090E07DDE9394B5CF8823B8
:101D1000E1F0C11109C061E088EE56DF66E670E0CF
:101D200080E090E06FDE11C0EC2FF0E0BB96EE0F8C
:101D3000FF1FEE0DFF1D80819181DC01ED91FC9173
:101D40000284F385E02D612F19958D2FDF91CF91BE
:101D50001F910F91FF90EF90DF90CF90BF90AF90C9
:101D60009F9008958F929F92AF92BF92CF92DF92F1
:101D7000EF92FF920F931F93CF93DF93862E942EB3
:101D8000590178DE6B017C0128E8C20E23E1D21EE6
:101D9000E11CF11C00E010E0D0E0C0E098286ADE11
:101DA000DC01CB018C199D09AE09BF09B7FF28C022
:101DB000692D80EF09DF5EDEDC01CB018C199D0906
:101DC000AE09BF09B7FF07C088EC1DDF87FFF3CF5F
:101DD00060E888ECF9DE88EF16DFC82FCF70C430DA
:101DE00019F0CE3051F00CC00F5F1F4FA114B10499
:101DF000B1F20A151B0599F603C0DF5FD33079F6FF
:101E00008C2FDF91CF911F910F91FF90EF90DF907A
:101E1000CF90BF90AF909F908F900895860F911DA7
:101E2000860F911DFC015687458781E00895483251
:101E300019F481E08093960208951F93CF93DF9366
:101E4000162FC42F262F22723CEF340F3A3170F434
:101E5000DC011A968C9181FD03C0222329F002C077
:101E6000211102C0C35C65C0C35A63C032EE340F97
:101E70003A3090F4222359F0DC01ED91FC91028478
:101E8000F385E02D1995EC2FF0E07E9735C04732B1
:101E900009F461C0CD5E4DC037EA340F393030F4FB
:101EA000FC01828580FF59C0C85243C033ED340F16
:101EB0003C3098F4DC01ED91FC91D0E0222321F03C
:101EC0000484F585E02D03C00684F785E02D19957F
:101ED000AD978C0F9D1FFC0111C02CEA240F2530FB
:101EE00088F4DC01ED91FC910088F189E02D1995D1
:101EF000EC2FF0E0E455F109E80FF91FC491CC2371
:101F000061F117C04C3229F120F4483231F5C3E1B8
:101F100010C0423619F0433631F01FC0FC018285F3
:101F200080FF1BC018C0DC011A968C9180FF15C081
:101F3000CEE2113091F08091970290919802DC01ED
:101F4000AE57BD4FCC930196909398028093970221
:101F500004C0C0E2EECFC0E3ECCFDF91CF911F9180
:101F600008958AE492E008958EE392E0089582E372
:101F700092E0089588E292E00895089580E008953F
:101F800080E090E00895089581E0089580E008954C
:101F900080E00895089580E0089580E0089580E04D
:101FA000089580E0089580E008958F929F92AF9207
:101FB000BF92CF92EF920F93CF93DF931F92CDB743
:101FC000DEB7FC019285473499F0433551F049332F
:101FD000B9F491FB882780F98095292F80FB21F99E
:101FE0000EC0892F81708095292F80FB20F907C0B2
:101FF00092FB882780F98095292F80FB22F9228780
:102000008285981729F16115710511F1FB0189830A
:102010001F921F92CE0101969F938F931F9281E092
:102020008F9388248394912CA12CB12C92E0C92EFB
:10203000E12C09E021E240E06681848195810E94E3
:1020400034040F900F900F900F900F900F9001C0DD
:1020500080E00F90DF91CF910F91EF90CF90BF90E4
:10206000AF909F908F90089528980895289A08958A
:1020700061E08AE05CDC60E08AE059CC61E089E004
:1020800056DC60E089E053CC60E088E050CC61E051
:1020900084E04DDC60E084E04ACC61E083E047DC32
:1020A00060E083E044CC60E082E041CC61E08AE122
:1020B0003EDC60E08AE13BCC61E08CE138DC60E052
:1020C0008CE135CC60E08EE132CCDEDFD7DFD6DFCD
:1020D000D5DFD4DFD3DFD2DFD1DFD0DFCFDFCEDF7C
:1020E000CDDFCCDFCBDFCADFC9DFC8DFC7DFC6DFAC
:1020F000C5DFC4DFC3DFC2DFC1DFC0DFBFDFBEDFDC
:10210000BDDFBCDFBBDFBADFB9DFB8DFB7DFB6DF0B
:10211000B5DFB4DFB3DFB2DFB1DFB0DFAFDFAEDF3B
:10212000ADDFACDFABDFAADFA9DFA8DFA7DFA6DF6B
:10213000A5DFA4DFA3DFA2DFA1DFA0DF9FDF9EDF9B
:102140009DDF9CDF9BDF9ADF99DF98DF97DF96DFCB
:1021500095DF94DF93DF92DF91DF90DF8FDF8EDFFB
:102160008DDF8CDF8BDF8ADF89DF88DF87DF86DF2B
:1021700085DF84DF83DF82DF81DF80DF7FDF7EDF5B
:102180007DDF7CDF7BDF7ADF79DF78DF77DF76DF8B
:1021900075DF74DF73DF72DF71DF70DF6FDF6EDFBB
:1021A0006DDF6CDF6BDF6ADF69DF68DF67DF66DFEB
:1021B00065DF64DF63DF62DF61DF60DF5FDF5EDF1B
:1021C0005DDF5CDF5BDF5ADF59DF58DF57DF56DF4B
:1021D00055DF54DF53DF52DF51DF50DF4FDF4EDF7B
:1021E0004DDF4CDF4BDF4ADF49DF48DF47DF46DFAB
:1021F00045DF44DF43DF42DF41DF40DF3FDF3EDFDB
:102200003DDF3CDF3BDF3ADF39DF38DF37DF36DF0A
:1022100035DF34DF33DF32DF31DF30DF2FDF2EDF3A
:102220002DDF2CDF2BDF2ADF29DF22CF3CDF35DF5C
:1022300034DF33DF32DF31DF30DF2FDF2EDF2DDF22
:102240002CDF2BDF2ADF29DF28DF27DF26DF25DF52
:1022500024DF23DF22DF21DF20DF1FDF1EDF1DDF82
:102260001CDF1BDF1ADF19DF18DF17DF16DF15DFB2
:1022700014DF13DF12DF11DF10DF0FDF0EDF0DDFE2
:102280000CDF0BDF0ADF09DF08DF07DF06DF05DF12
:1022900004DF03DF02DF01DF00DFFFDEFEDEFDDE45
:1022A000FCDEFBDEFADEF9DEF8DEF7DEF6DEF5DE7A
:1022B000F4DEF3DEF2DEF1DEF0DEEFDEEEDEEDDEAA
:1022C000ECDEEBDEEADEE9DEE8DEE7DEE6DEE5DEDA
:1022D000E4DEE3DEE2DEE1DEE0DEDFDEDEDEDDDE0A
:1022E000DCDEDBDEDADED9DED8DED7DED6DED5DE3A
:1022F000D4DED3DED2DED1DED0DECFDECEDECDDE6A
:10230000CCDECBDECADEC9DEC8DEC7DEC6DEC5DE99
:10231000C4DEC3DEC2DEC1DEC0DEBFDEBEDEBDDEC9
:10232000BCDEBBDEBADEB9DEB8DEB7DEB6DEB5DEF9
:10233000B4DEB3DEB2DEB1DEB0DEAFDEAEDEADDE29
:10234000ACDEABDEAADEA9DEA8DEA7DEA6DEA5DE59
:10235000A4DEA3DEA2DEA1DEA0DE9FDE9EDE9DDE89
:102360009CDE9BDE9ADE99DE98DE97DE96DE95DEB9
:1023700094DE93DE92DE91DE90DE8FDE8EDE8DDEE9
:102380008CDE8BDE8ADE89DE88DE87DE86DE85DE19
:1023900084DE83DE82DE81DE80DE7FDE7EDE7DDE49
:1023A0007CDE7BDE7ADE79DE78DE77DE76DE75DE79
:1023B00074DE73DE72DE71DE70DE6FDE6EDE6DDEA9
:1023C0006CDE6BDE6ADE69DE68DE67DE66DE65DED9
:1023D00064DE63DE62DE61DE60DE5FDE5EDE5DDE09
:1023E0005CDE5BDE5ADE59DE58DE57DE56DE55DE39
:1023F00054DE53DE52DE51DE50DE4FDE4EDE4DDE69
:102400004CDE4BDE4ADE49DE48DE47DE46DE45DE98
:1024100044DE43DE42DE41DE40DE3FDE3EDE3DDEC8
:102420003CDE35CE4FDE48DE47DE46DE45DE44DEAE
:1024300043DE42DE41DE40DE3FDE3EDE3DDE3CDEB0
:102440003BDE3ADE39DE38DE37DE36DE35DE34DEE0
:1024500033DE32DE31DE30DE2FDE2EDE2DDE2CDE10
:102460002BDE2ADE29DE28DE27DE26DE25DE24DE40
:1024700023DE22DE21DE20DE1FDE1EDE1DDE1CDE70
:102480001BDE1ADE19DE18DE17DE16DE15DE14DEA0
:1024900013DE12DE11DE10DE0FDE0EDE0DDE0CDED0
:1024A0000BDE0ADE09DE08DE07DE06DE05DE04DE00
:1024B00003DE02DE01DE00DEFFDDFEDDFDDDFCDD34
:1024C000FBDDFADDF9DDF8DDF7DDF6DDF5DDF4DD68
:1024D000F3DDF2DDF1DDF0DDEFDDEEDDEDDDECDD98
:1024E000EBDDEADDE9DDE8DDE7DDE6DDE5DDE4DDC8
:1024F000E3DDE2DDE1DDE0DDDFDDDEDDDDDDDCDDF8
:10250000DBDDDADDD9DDD8DDD7DDD6DDD5DDD4DD27
:10251000D3DDD2DDD1DDD0DDCFDDCEDDCDDDCCDD57
:10252000CBDDCADDC9DDC8DDC7DDC6DDC5DDC4DD87
:10253000C3DDC2DDC1DDC0DDBFDDBEDDBDDDBCDDB7
:10254000BBDDBADDB9DDB8DDB7DDB6DDB5DDB4DDE7
:10255000B3DDB2DDB1DDB0DDAFDDAEDDADDDACDD17
:10256000ABDDAADDA9DDA8DDA7DDA6DDA5DDA4DD47
:10257000A3DDA2DDA1DDA0DD9FDD9EDD9DDD9CDD77
:102580009BDD9ADD99DD98DD97DD96DD95DD94DDA7
:1025900093DD92DD91DD90DD8FDD8EDD8DDD8CDDD7
:1025A0008BDD8ADD89DD88DD87DD86DD85DD84DD07
:1025B00083DD82DD81DD80DD7FDD7EDD7DDD7CDD37
:1025C0007BDD7ADD79DD78DD77DD76DD75DD74DD67
:1025D00073DD72DD71DD70DD6FDD6EDD6DDD6CDD97
:1025E0006BDD6ADD69DD68DD67DD66DD65DD64DDC7
:1025F00063DD62DD61DD60DD5FDD5EDD5DDD5CDDF7
:102600005BDD5ADD59DD58DD57DD56DD55DD54DD26
:1026100053DD52DD51DD50DD4FDD48CD08958EBDD7
:1026200000000DB407FEFDCF8EB508958CBD9DBD95
:1026300008958F929F92BF92CF92DF92EF92FF9276
:102640000F931F93CF93DF931F92CDB7DEB74C014B
:10265000B62E69014983CAD87C014981009709F4E3
:1026600048C0DC01ED91FC911197309709F443C00B
:1026700013969C9180E0891731F02081241729F06E
:1026800033968F5FF8CFE0E0F0E0D601ED93FC9356
:10269000309799F122812695269530E02031310539
:1026A00014F02FE030E081E090E0A0E0B0E004C062
:1026B000880F991FAA1FBB1F2A95D2F70197F8010F
:1026C000918380836B2D80EE7FDA88ED9CDA682F12
:1026D000D70114968C91882339F0F401EA58FF4F02
:1026E00080818260682B01C0697F88ED6DDA80E0AF
:1026F00005C086ED03C087ED01C08BED0F90DF9123
:10270000CF911F910F91FF90EF90DF90CF90BF90EE
:102710009F908F9008958F929F92AF92BF92CF9289
:10272000EF920F93CF931F921F921F921F921F92AF
:102730001F92812C912CA12CB12CC12CE42E05E0F0
:1027400020E040E00E943404C82F6CE271E080E099
:1027500090E058D90F900F900F900F900F900F901E
:102760008C2FCF910F91EF90CF90BF90AF909F9013
:102770008F9008958F929F92AF92BF92CF92EF92D7
:102780000F931F921F923F932F935F934F934A0192
:10279000A12CB12CCC24C394E12C06E020E840E02D
:1027A0000E9434040F900F900F900F900F900F9095
:1027B0000F91EF90CF90BF90AF909F908F90089522
:1027C00088EF0E941703807C8034A1F018F48823DE
:1027D00001F10895803819F0803CB9F0089588ED32
:1027E0000E94170381FD0BC069EC88ED0E94D90897
:1027F00082E00CC088ED0E94170381FDF5CF6BECE1
:1028000088ED0E94D90883E001C081E08093B8027E
:10281000089561ED88ED0E94D9081092B8020895DC
:10282000009769F0FC0101900020E9F73197AF01B2
:10283000481B590BBC0189EB92E00C94F90880E02D
:1028400090E008958F929F92AF92BF92CF92DF92C5
:10285000EF92FF920F931F93CF93DF93CDB7DEB725
:10286000A1970FB6F894DEBF0FBECDBF6C01990FD4
:10287000EE08FF08F7FE30C0E091B902F091BA020D
:102880000190F081E02D6DE289EB92E019958C01C9
:1028900022273327A9012C193D094E095F0919A2E6
:1028A000CE0181967C019AE0892E912CA12CB12C2D
:1028B000CA01B901A50194010E94F420605DF701ED
:1028C00062937F01211531054105510589F7CF013B
:1028D000A7DF080F191F1DC0A701960119A28E01BD
:1028E0000F5D1F4F8AE0C82ED12CE12CF12CCA01BC
:1028F000B901A70196010E94F420605DF80162937E
:102900008F01211531054105510589F7CF0188DF78
:102910008C018CE692E084DF800F911FA1960FB6A8
:10292000F894DEBF0FBECDBFDF91CF911F910F9105
:10293000FF90EF90DF90CF90BF90AF909F908F90DF
:102940000895CF93DF93CDB7DEB767970FB6F894AE
:10295000DEBF0FBECDBF789484B5826084BD84B5E0
:10296000816084BD85B5826085BD85B5816085BD8A
:1029700080916E00816080936E0010928100809142
:1029800081008260809381008091810081608093CA
:102990008100809180008160809380008091B100EF
:1029A00084608093B1008091B00081608093B0001A
:1029B000809191008260809391008091910081606C
:1029C000809391008091900081608093900080912D
:1029D000A10082608093A1008091A100816080931A
:1029E000A1008091A00081608093A00080912101CE
:1029F0008260809321018091210181608093210177
:102A00008091200181608093200180917A00846010
:102A100080937A0080917A00826080937A0080911E
:102A20007A00816080937A0080917A008068809338
:102A30007A001092C10061E08FE10E94C60C61E053
:102A400086E10E94C60C61E088E20E94C60C61E04B
:102A50008EE10E94C60C61E08CE10E94C60C61E030
:102A60008AE10E94C60C60E088E10E94C60C61E029
:102A700086E00E94C60C61E087E00E94C60C61E01F
:102A80008AE20E94C60C61E082E00E94C60C61E00E
:102A900083E00E94C60C61E084E00E94C60C60E006
:102AA00085E00E94C60C61E08CE00E94C60C61E0EB
:102AB0008DE00E94C60C61E088E00E94C60C61E0D7
:102AC00089E00E94C60C61E08AE00E94C60C60E0CA
:102AD0008BE00E94C60CE091C902F091CA0282E02C
:102AE0008083E091C502F091C6021082E091C70296
:102AF000F091C80280E180831092D102E091CD0272
:102B0000F091CE0286E08083E091CB02F091CC027E
:102B1000808180618083E091CB02F091CC02808142
:102B200088608083E091CB02F091CC028081806844
:102B30008083E091CB02F091CC0280818F7D8083F5
:102B400071DC74DB86E692E06BDE8CE692E068DE98
:102B5000209A8CDA1FB7F89480919902811127C0CE
:102B6000EDE9F1E08491E7E5F1E09491E82FF0E000
:102B7000EE0FFF1FE85FFE4FA591B491EC91E923A2
:102B800021F461E085E30E94970C61E085E30E94F7
:102B9000C60C8CB580618CBD8CB580648CBD61E049
:102BA00084E30E94C60C61E083E30E94C60C80911E
:102BB00099028F5F809399021FBF209A57DA6E980F
:102BC00068E188E80E94D90860E288E70E94D90895
:102BD00060E088E70E94D90801E010E001151105C6
:102BE00011F40C94142088E60E9417030F5F1F4F06
:102BF00080FFF4CF61EC88ED0E94D90860E680ED9B
:102C00000E94D90864E088EE0E94D90888EE0E94EC
:102C1000170382FFFBCFD4DD60E288EC0E94D90865
:102C200061E080E80E94D90868EC70E080E090E004
:102C30000E94020D0E943A0DDC01CB0188579C4E88
:102C4000AF4FBF4F80939A0290939B02A0939C0238
:102C5000B0939D0287E593E09093700380936F0398
:102C60001E0183E1280E311C1092980210929702E7
:102C700082E1482E512C90E1C92ED12C2EE0A22EBB
:102C8000B12C3CE0832E912C4AE0642E712C809173
:102C9000960281110C94791F88E10E946F0C7C01CF
:102CA0009093AE028093AD0285E00E946F0C9093EA
:102CB000AC028093AB028BE00E946F0C9093AA024F
:102CC0008093A9028091A7029091A802E816F906C4
:102CD00099F0EA94EF2851F4809104029091050252
:102CE00001969093050280930402ACDD62E370E0EC
:102CF00080E090E00E94020D8091AD029091AE02C2
:102D00009093A8028093A7028091040290910502FB
:102D1000009709F000C161E08EE10E94970CCCD9C8
:102D2000CBD9CAD9C9D9C8D9C7D9C6D9C5D9C4D99F
:102D3000C3D9C2D9C1D9C0D9BFD9BED9BDD9BCD9CF
:102D4000BBD9BAD9B9D9B8D9B7D9B6D9B5D9B4D9FF
:102D5000B3D9B2D9B1D9B0D9AFD9AED9ADD9ACD92F
:102D6000ABD9AAD9A9D9A8D9A7D9A6D9A5D9A4D95F
:102D7000A3D9A2D9A1D9A0D99FD99ED99DD99CD98F
:102D80009BD99AD999D998D997D996D995D994D9BF
:102D900093D992D991D990D98FD98ED98DD98CD9EF
:102DA0008BD98AD989D988D987D986D985D984D91F
:102DB00083D982D981D980D97FD97ED97DD97CD94F
:102DC0007BD97AD979D978D977D976D975D974D97F
:102DD00073D972D971D970D96FD96ED96DD96CD9AF
:102DE0006BD96AD969D968D967D966D965D964D9DF
:102DF00063D962D961D960D95FD95ED95DD95CD90F
:102E00005BD95AD959D958D957D956D955D954D93E
:102E100053D952D951D950D94FD94ED94DD94CD96E
:102E20004BD94AD949D948D947D946D945D944D99E
:102E300043D942D941D940D93FD93ED93DD93CD9CE
:102E40003BD93AD939D938D937D936D935D934D9FE
:102E500033D932D931D930D92FD92ED92DD92CD92E
:102E60002BD92AD929D928D927D926D925D924D95E
:102E700023D922D921D920D91FD91ED91DD91CD98E
:102E80001BD91AD919D918D917D916D915D914D9BE
:102E900013D912D911D910D90FD90ED90DD90CD9EE
:102EA0000BD90AD909D908D907D906D905D904D91E
:102EB00003D902D901D900D9FFD8FED8FDD8FCD852
:102EC000FBD8FAD8F9D8F8D8F7D8F6D8F5D8F4D886
:102ED000F3D8F2D8F1D8F0D8EFD8EED8EDD8ECD8B6
:102EE000EBD8EAD8E9D8E8D8E7D8E6D8E5D8E4D8E6
:102EF000E3D8E2D8E1D8E0D8DFD8DED8DDD8DCD816
:102F0000DBD8DAD8D9D8D8D8D7D8D6D8D5D8D4D845
:102F1000D3D8CCD8C9C08130910551F483DA61E0AF
:102F20008EE10E94970CC8D8C1D882E090E008C01A
:102F30008330910551F4C6D8BFD8B8D884E090E06A
:102F40009093050280930402AFC08530910591F4FF
:102F5000B9D8B2D8ABD860E08FE10E94970C61E09D
:102F600086E10E94970C60E088E20E94970C86E060
:102F700090E0E6CF8730910531F4A4D89DD896D85B
:102F800088E090E0DDCF89309105A1F49BD894D8FA
:102F90008DD8709205026092040260E08FE10E9479
:102FA000970C60E086E10E94970C61E088E20E9445
:102FB000970C7AC08B30910541F484D87DD876D8AF
:102FC00090920502809204026FC08D30910541F409
:102FD00079D872D86BD8B0920502A092040264C06E
:102FE0008F30910541F46ED867D860D8D092050231
:102FF000C092040259C08131910541F463D85CD874
:1030000055D850920502409204024EC0833191057A
:1030100031F458D851D84AD8A4E1B0E035C0853150
:10302000910531F44FD848D841D8E6E1F0E038C0F6
:103030008731910531F446D83FD838D888E190E0FF
:103040007FCF8931910531F43DD836D82FD8AAE108
:10305000B0E01AC08B31910531F434D82DD826D880
:10306000ECE1F0E01DC08D31910531F42BD824D86E
:103070001DD88EE190E064CF8F31910551F422D8B4
:103080001BD814D8A0E2B0E0B0930502A0930402CC
:103090000BC0819749F416D80FD808D8E2E2F0E0C7
:1030A000F0930502E09304028091AB029091AC0290
:1030B0002091A5023091A6028217930791F0019703
:1030C00051F48091020290910302019690930302C1
:1030D00080930202B7DB62E370E080E090E00E9440
:1030E000020D8091AB029091AC029093A602809366
:1030F000A5028091020290910302009709F0FBC1A2
:1031000061E082E00E94970C0E944D100E944D10D9
:103110000E944D100E944D100E944D100E944D10B3
:103120000E944D100E944D100E944D100E944D10A3
:103130000E944D100E944D100E944D100E944D1093
:103140000E944D100E944D100E944D100E944D1083
:1034F0000E9447107CC08130910569F40E9416112A
:1035000061E082E00E94970C0E944D100E944710DB
:1035100082E090E00BC08330910569F40E94531063
:103520000E944D100E94471084E090E090930302A7
:10353000809302025CC08530910549F40E945310CB
:103540000E944D100E94471086E090E0EFCF873038
:10355000910549F40E9453100E944D100E9447109B
:1035600088E090E0E3CF8930910559F40E94531030
:103570000E944D100E944710709203026092020256
:1035800036C08B30910559F40E9453100E944D10A3
:103590000E944710909203028092020228C08D3050
:1035A000910559F40E9453100E944D100E9447103B
:1035B000B0920302A09202021AC08F30910559F412
:1035C0000E9453100E944D100E944710D092030297
:1035D000C09202020CC0419751F40E9453100E9405
:1035E0004D100E94471050920302409202028091B7
:1035F000A9029091AA022091A3023091A4028217FD
:10360000930791F0019751F480910002909101028B
:103610000196909301028093000214D962E370E056
:1036200080E090E00E94020D8091A9029091AA0290
:103630009093A4028093A3028091000290910102D2
:10364000009709F0FBC161E088E00E94970C0E949E
:103650003E100E943E100E943E100E943E100E94AA
:103660003E100E943E100E943E100E943E100E949A
:103670003E100E943E100E943E100E943E100E948A
:103680003E100E943E100E943E100E943E100E947A
:103A30003E100E943E100E9438107CC081309105DB
:103A400069F40E94651061E088E00E94970C0E9472
:103A50003E100E94381082E090E00BC08330910548
:103A600069F40E9444100E943E100E94381084E0C5
:103A700090E090930102809300025CC08530910534
:103A800049F40E9444100E943E100E94381086E0C3
:103A900090E0EFCF8730910549F40E9444100E94D6
:103AA0003E100E94381088E090E0E3CF8930910505
:103AB00059F40E9444100E943E100E9438107092E7
:103AC00001026092000236C08B30910559F40E94C9
:103AD00044100E943E100E94381090920102809281
:103AE000000228C08D30910559F40E9444100E94B4
:103AF0003E100E943810B0920102A09200021AC03B
:103B00008F30910559F40E9444100E943E100E948B
:103B10003810D0920102C09200020CC0419751F4BB
:103B20000E9444100E943E100E94381050920102E0
:103B30004092000266990DC088EC0E94030E85FF3A
:103B400004C00E94E01360E201C060E088EC0E94C3
:103B5000E40D8091B802813039F040F0823079F084
:103B6000833039F511E00CC083E106C08091560323
:103B7000807F8031F1F081E1809356031AC010E01C
:103B800080915603807F8031A9F40E943A0DDC01B8
:103B9000CB0188539F4FAF4FBF4F80939F029093AD
:103BA000A002A093A102B093A20280E280935603E8
:103BB00001C010E062EDE62E63E0F62E9701D90118
:103BC0008D919D919D01009759F0DC01ED91FC9143
:103BD0000680F781E02D2E8B3F8B19953F892E892A
:103BE000B3E0223F3B0759F780915603803409F434
:103BF00045C050F4803231F18033D1F1813109F088
:103C000046C81092F2030AC0813509F463C08038B7
:103C100009F477C0803509F03AC841C0F7018191B5
:103C200091917F01009739F0DC01ED91FC910480C6
:103C3000F581E02D1995B2EFEB16B3E0FB0671F7B5
:103C400082E153C10E943A0D00919F021091A0029F
:103C50002091A1023091A202DC01CB01801B910BCB
:103C6000A20BB30BB7FF01C003C880E380935603D8
:103C700061E088EE0E94E40D80E437C188EE0E9486
:103C8000030E80FF02C00C94381688ED0E94030ECC
:103C9000682F686088ED0E94E40D80E526C188ECFD
:103CA0000E94030E86FD02C00C94381681E58093B5
:103CB00056030E943A0DDC01CB014496A11DB11DB3
:103CC00080939F029093A002A093A102B093A202BE
:103CD0000C9438160E943A0D80909F029090A0029A
:103CE000A090A102B090A202DC01CB018819990931
:103CF000AA09BB09B7FF02C00C94381680E880936C
:103D000056031B8A88E08C8B8CE38D8B82E893E0D2
:103D1000892B11F486EDE4C0C0908203D090830318
:103D20003092830320928203109386039E012F5FBB
:103D30003F4F42E150E060E08CE793E00E94BA130D
:103D4000D0928303C09282038111C4C0A984BA8433
:103D50008B849C846D805E8052EDC52E53E0D52E01
:103D6000712CF60180819181009789F1DC01ED9140
:103D7000FC910084F185E02D1995811128C0F60190
:103D800080819181DC01ED91FC910088F189E02D29
:103D9000652D19958823D9F0F60180819181DC0188
:103DA000ED91FC910484F585E02DA401B5011995F0
:103DB000811185C0F60180819181DC01ED91FC913A
:103DC0000684F785E02D662D1995811178C07394CE
:103DD000B2E0CB0ED11CE0E17E12C3CFD12CD701D3
:103DE0008D919C91009799F1DC01ED91FC910084FB
:103DF000F185E02D199581112AC0F701808191810B
:103E0000DC01ED91FC910088F189E02D652D19957B
:103E1000882309F4FBC0F70180819181DC01ED91D9
:103E2000FC910484F585E02DA401B501199581115B
:103E30000EC0F70180819181DC01ED91FC91068437
:103E4000F785E02D662D1995882309F4DFC0D394FA
:103E5000B2E0EB0EF11CE0E1DE12C1CF80918203F3
:103E600090918303892B39F11093860320E040E081
:103E700060E08CE793E00E949A0BF82E8823E9F02B
:103E8000682F8CE793E00E94F60B009709F442CF6D
:103E9000DC0114961C934F2D60E08CE793E00E94A8
:103EA0008B13182F882301F16F2D8CE793E00E946C
:103EB000730B812F0FC087ED13C084ED11C0012F4C
:103EC00020E040E0672D8CE793E00E941B0E813DCF
:103ED00009F47DCF882341F0823D11F40C9438160B
:103EE00080939E0280EA01C080E9809356030C947F
:103EF00038161092960240919702509198024150C4
:103F00005109509398024093970262E872E089EB5E
:103F100092E00E94F9086AE089EB92E00E947C0935
:103F200080918202833651F580918302883631F583
:103F300080918402813611F5809185028337F1F4F6
:103F4000809186028337D1F4809187028936B1F45B
:103F500080918802833791F40E9412121092050218
:103F60001092040261E08FE10E94970C60E086E10C
:103F70000E94970C60E088E20E94970C8091820278
:103F80008236F1F4809183028F36D1F480918402DD
:103F90008436B1F480918502893791F40E9416111C
:103FA000109203021092020261E086E00E94970CD8
:103FB00060E087E00E94970C60E08AE20E94970C24
:103FC000809182028237F1F4809183028936D1F4A4
:103FD000809184028736B1F480918502883691F40D
:103FE00080918602843771F40E946510109201025C
:103FF0001092000261E08CE00E94970C60E08DE07E
:104000000E94970C0E94E3090C943416012F20E0C3
:1040100040E06D2D8CE793E00E941B0E982F977F58
:10402000913D09F057CF13CF8FE692E00E94101414
:104030008CE692E00E9410140C9414161092BC02AC
:104040001092BB0288EE93E0A0E0B0E08093BD0246
:104050009093BE02A093BF02B093C00286E192E0AB
:104060009093BA028093B90285EC90E09093C602D7
:104070008093C50284EC90E09093C8028093C702BD
:1040800080EC90E09093CA028093C90281EC90E0AA
:104090009093CC028093CB0282EC90E09093CE027E
:1040A0008093CD0286EC90E09093D0028093CF0273
:1040B0001092D2021092D3021092D4021092D50222
:1040C00080910401846080930401809105018460E3
:1040D000809305018AE492E090937D0380937C03B2
:1040E000109281031092840381E0809385031092E3
:1040F00086038EE793E0909383038093820310926C
:104100007E0388E080937F038CE38093800380E0CC
:1041100090E041E02EE733E0FC01E458FC4F1586C7
:10412000468717863487238705968B349105A1F738
:104130001092F20381E1809356038CE793E0909311
:1041400067038093660386E292E090936303809313
:10415000620384E492E09093650380936403109279
:1041600075031092760310927703109278031092E1
:10417000790310927B031092690388E080936A03AD
:104180008CE380936B0310926C0310926D0384E0B8
:1041900080936E0381E080937403109273031092F6
:1041A00071031092700310926F03E2EDF3E080E070
:1041B00090E021913191232B51F4880F991FFC013C
:1041C000EE52FC4F82E693E09183808304C0019617
:1041D0008031910571F71092610384E592E090932C
:1041E0005803809357030895A1E21A2EAA1BBB1B04
:1041F000FD010DC0AA1FBB1FEE1FFF1FA217B307B3
:10420000E407F50720F0A21BB30BE40BF50B661FC8
:10421000771F881F991F1A9469F76095709580958C
:1042200090959B01AC01BD01CF010895EE0FFF1FDA
:10423000881F8BBF0790F691E02D199481E090E0E4
:10424000F89407C0DC0101C06D9341505040E0F785
:064250000895F894FFCF71
:10425600B80BD007E80300000000D1010000000001
:104266005B01000000007C09F908460924093809A9
:10427600C20900000000D605D10FB6015108B301EE
:10428600CA0FC80FAE01A901A1010E0F9E015C0164
:10429600FEFF0000950100000000F60B9A0B730B61
:1042A60000000000960AD50FBD0F1D0F170FBA0F9D
:1042B600B70FB40FB10F5374617274000D0A004F3B
:1042C600534320646964206E6F7420737461727442
:0242D6002E00B8
:00000001FF
